:020000040000FA
:10000000A304020AA404700071006400A304B50BE9
:08001000A304D50BA304AD0B02
:10035A00020C0600A40466006100010C02000008F9
:10036A00A3040A09A304A404E307BC0BBD0BD00B26
:10037A00E3048605600C3200EA0C3300A304080982
:10038A00A304A4041202270007024307CD0BCE0BD5
:10039A00BF0B8604B80B06020300B80BA304000ABD
:1003AA00A40470007100060C2100F50C81000307FB
:1003BA00DF0BE00BDA0B010C2E006F000E02F001CE
:1003CA000306B1020F02F1012606EC0BED0BF00B4E
:1003DA007200B202FF0B13022F0012022E000F024C
:1003EA0091004307FA0B0E0290000307FD0BFE0B68
:0603FA00D80B72000008A0
:021FFE00EAFFF8
:00000001FF
